:100000000C945D000C9485000C9485000C94850084
:100010000C9485000C9485000C9485000C9485004C
:100020000C9485000C9485000C9485000C9485003C
:100030000C9485000C9485000C9485000C9485002C
:100040000C941A020C9485000C948A020C9464029D
:100050000C9485000C9485000C9485000C9485000C
:100060000C9485000C94850000000008000201003B
:100070000003040700000000000000000000000072
:10008000250028002B0000000000240027002A0083
:10009000040404040404040402020202020203032E
:1000A0000303030301020408102040800102040836
:1000B0001020010204081020F50311241FBECFEF09
:1000C000D8E0DEBFCDBF11E0A0E0B1E0E4E5F8E0AC
:1000D00002C005900D92A03DB107D9F722E0A0ED36
:1000E000B1E001C01D92A837B207E1F710E0CDE5FD
:1000F000D0E004C02197FE010E942204CC35D10734
:10010000C9F70E94BC020C9428040C94000090E0F3
:10011000FC01EC55FF4F249180579F4FFC018491C7
:10012000882399F090E0880F991FFC01EA57FF4F50
:10013000A591B491FC01E458FF4F859194918FB73C
:10014000F894EC91E22BEC938FBF0895AF92BF929D
:10015000CF92DF92EF92FF920F931F93CF93DF9393
:100160006C017B018B01040F151FEB015E01AE18C2
:10017000BF08C017D10759F06991D601ED91FC91E4
:100180000190F081E02DC6010995892B79F7C50111
:10019000DF91CF911F910F91FF90EF90DF90CF9063
:1001A000BF90AF900895FC01538D448D252F30E012
:1001B000842F90E0821B930B541710F0CF96089574
:1001C00001970895FC01918D828D981761F0A28DA1
:1001D000AE0FBF2FB11D5D968C91928D9F5F9F7367
:1001E000928F90E008958FEF9FEF0895FC01918D1D
:1001F000828D981731F0828DE80FF11D858D90E08A
:1002000008958FEF9FEF0895FC01918D228D892F26
:1002100090E0805C9F4F821B91098F73992708950E
:100220008BED91E00E94040121E0892B09F420E08C
:10023000822F089580E090E0892B29F00E94100120
:1002400081110C9400000895FC01A48DA80FB92F12
:10025000B11DA35ABF4F2C91848D90E001968F73EE
:100260009927848FA689B7892C93A089B1898C910D
:10027000837080648C93938D848D981306C002885C
:10028000F389E02D80818F7D80830895EF92FF9226
:100290000F931F93CF93DF93EC0181E0888F9B8DA9
:1002A0008C8D98131AC0E889F989808185FF15C063
:1002B0009FB7F894EE89FF896083E889F989808186
:1002C0008370806480839FBF81E090E0DF91CF9155
:1002D0001F910F91FF90EF900895F62E0B8D10E077
:1002E0000F5F1F4F0F731127E02E8C8D8E110CC0E6
:1002F0000FB607FCFACFE889F989808185FFF5CF31
:10030000CE010E942401F1CFEB8DEC0FFD2FF11DEA
:10031000E35AFF4FF0829FB7F8940B8FEA89FB896D
:1003200080818062CFCFCF93DF93EC01888D8823CB
:10033000B9F0AA89BB89E889F9898C9185FD03C048
:10034000808186FD0DC00FB607FCF7CF8C9185FF2D
:10035000F2CF808185FFEDCFCE010E942401E9CF4D
:10036000DF91CF91089590E0FC01E859FF4F24916F
:10037000FC01EC55FF4F3491FC01E057FF4FE49135
:10038000EE23C9F0222339F0233001F1A8F4213003
:1003900019F1223029F1F0E0EE0FFF1FE458FF4F72
:1003A000A591B4918FB7F894EC91611126C0309566
:1003B0003E233C938FBF08952730A9F02830C9F021
:1003C000243049F7809180008F7D03C080918000A8
:1003D0008F7780938000DFCF84B58F7784BDDBCFAC
:1003E00084B58F7DFBCF8091B0008F778093B00074
:1003F000D2CF8091B0008F7DF9CF3E2BDACFFC01B8
:1004000001900020E9F73197AF01481B590BBC015F
:100410008BED91E00C94A600CF93DF930E94FF0137
:10042000EC0182E191E00E94FF018C0F9D1FDF91A2
:10043000CF9108951F920F920FB60F9211242F9310
:100440003F938F939F93AF93BF938091D7019091E8
:10045000D801A091D901B091DA013091D60123E001
:10046000230F2D3758F50196A11DB11D2093D601FC
:100470008093D7019093D801A093D901B093DA016A
:100480008091D2019091D301A091D401B091D50176
:100490000196A11DB11D8093D2019093D301A09329
:1004A000D401B093D501BF91AF919F918F913F91AE
:1004B0002F910F900FBE0F901F90189526E8230FD5
:1004C0000296A11DB11DD2CF1F920F920FB60F92AF
:1004D00011242F933F934F935F936F937F938F9349
:1004E0009F93AF93BF93EF93FF938BED91E00E94A7
:1004F0002401FF91EF91BF91AF919F918F917F91D7
:100500006F915F914F913F912F910F900FBE0F9080
:100510001F9018951F920F920FB60F9211242F93D0
:100520008F939F93EF93FF93E091EB01F091EC0198
:100530008081E091F101F091F20182FD1BC0908178
:100540008091F4018F5F8F732091F501821741F044
:10055000E091F401F0E0E552FE4F958F8093F401B5
:10056000FF91EF919F918F912F910F900FBE0F9060
:100570001F9018958081F4CF789484B5826084BDF3
:1005800084B5816084BD85B5826085BD85B5816097
:1005900085BD80916E00816080936E001092810015
:1005A00080918100826080938100809181008160D0
:1005B0008093810080918000816080938000809191
:1005C000B10084608093B1008091B000816080931D
:1005D000B00080917A00846080937A0080917A00E4
:1005E000826080937A0080917A00816080937A00A3
:1005F00080917A00806880937A001092C100E09127
:10060000EB01F091EC0182E08083E091E701F09151
:10061000E8011082E091E901F091EA018FEC80831A
:100620001092F301E091EF01F091F00186E08083F8
:10063000E091ED01F091EE01808180618083E09195
:10064000ED01F091EE01808188608083E091ED0101
:10065000F091EE01808180688083E091ED01F0915E
:10066000EE0180818F7D808386E00E94870085E097
:100670000E94870084E00E94870085E191E00E944B
:10068000FF0182E191E00E94FF0180E0E82E80E01E
:10069000F82E01E010E08BED91E00E940401892B1F
:1006A00071F18BED91E00E94E200C82F682F8BED75
:1006B00091E00E9446018FE391E00E94FF01C13367
:1006C00041F51093D1010093D00161E086E00E94D2
:1006D000B30186E591E00E940C028091D0019091D7
:1006E000D101892B21F48CEA91E00E940C0282E175
:1006F00091E00E94FF011092D1011092D001E1140B
:10070000F10449F20E941001882329F20E9400009E
:10071000C2CFC23359F41093D1010093D00160E0ED
:1007200086E00E94B30180E691E0D5CFC33359F44F
:100730001093D1010093D00161E085E00E94B301E4
:100740008BE691E0C8CFC43359F41093D1010093E4
:10075000D00160E085E00E94B30183E791E0BBCF68
:10076000C53359F41093D1010093D00161E084E0C6
:100770000E94B3018CE791E0AECFC63359F41093D9
:10078000D1010093D00160E084E00E94B3018BE8C6
:1007900091E0A1CFC73399F41093D1010093D00118
:1007A00061E085E00E94B30161E084E00E94B30152
:1007B00061E086E00E94B3018BE991E08CCFC83301
:1007C00009F08BCF1093D1010093D00160E084E059
:1007D0000E94B30160E085E00E94B30160E086E022
:1007E0000E94B30183EA91E076CFEBEDF1E0138252
:1007F000128288EE93E0A0E0B0E084839583A68324
:10080000B78384E091E09183808385EC90E09587C5
:10081000848784EC90E09787868780EC90E0918BCA
:10082000808B81EC90E0938B828B82EC90E0958BB7
:10083000848B86EC90E0978B868B118E128E138EB4
:10084000148E0895EE0FFF1F0590F491E02D09948A
:04085000F894FFCF4A
:10085400000000004601A600D30093010401E20059
:10086400F6000D0A0053696D756C61736920486F59
:100874006D65204175746F6D6174696F6E20646578
:100884006E67616E2050617373776F72643A0020F3
:1008940020202020203D3D3D3D3D3D3D3D203E204E
:1008A4002020202020004C69676874206F6E2E0081
:1008B4004C69676874206F66662E0046616E206F0F
:1008C4006E2E0046616E206F66662E004E69676864
:1008D40074206C616D70206F6E2E004E69676874B1
:1008E400206C616D70206F66662E00416C6C206F09
:1008F4006E2E00416C6C206F66662E005065726926
:100904006E7461682053616C61682E2053696C6158
:100914006B616E20756C616E676920212121200056
:00000001FF
