:100000000C9462000C948A000C948A000C948A0070
:100010000C948A000C948A000C948A000C948A0038
:100020000C948A000C948A000C948A000C948A0028
:100030000C948A000C948A000C948A000C948A0018
:100040000C9464050C948A000C9432050C940C05F5
:100050000C948A000C948A000C948A000C948A00F8
:100060000C948A000C948A000000000024002700F1
:100070002A0000000000250028002B0000000000DE
:1000800023002600290004040404040404040202DA
:100090000202020203030303030301020408102007
:1000A0004080010204081020010204081020000012
:1000B0000008000201000003040700000000000027
:1000C0000000AE0511241FBECFEFD8E0DEBFCDBFCC
:1000D00011E0A0E0B1E0E0EBFEE002C005900D927F
:1000E000A234B107D9F722E0A2E4B1E001C01D9229
:1000F000A237B207E1F710E0C2E6D0E004C02197D2
:10010000FE010E945007C136D107C9F70E9446067A
:100110000C9456070C94000096E0899FD00111249E
:10012000A451BE4F90967C936E935F9791E0919609
:100130009C939197E0915902F0915A029091580244
:10014000992339F0309751F0811108C0809108024D
:100150000994309719F05C968C91FACF0895CF925C
:10016000DF92EF92FF920F931F9396E0899FF00129
:100170001124E451FE4F11A2278D30A12130310509
:1001800051F178F02230310509F451C023303105A6
:1001900009F452C01F910F91FF90EF90DF90CF9024
:1001A00008956623B9F361E070E00E948C002FB7D8
:1001B000F89480914B0190914C01A0914D01B09128
:1001C0004E012FBF8093440290934502A0934602B4
:1001D000B0934702DFCF9FB7F894C0904B01D09007
:1001E0004C01E0904D01F0904E019FBF0091440200
:1001F000109145022091460230914702C01AD10A5F
:10020000E20AF30A009156021091570230E020E012
:100210000C151D052E053F0550F462E070E01F919E
:100220000F91FF90EF90DF90CF900C948C006111B4
:10023000B1CF63E070E0F3CF70E060E0F0CFAF9259
:10024000BF92CF92DF92EF92FF920F931F93CF93C3
:10025000DF936C017B018B01040F151FEB015E0125
:10026000AE18BF08C017D10759F06991D601ED91BA
:10027000FC910190F081E02DC6010995892B79F759
:10028000C501DF91CF911F910F91FF90EF90DF900B
:10029000CF90BF90AF900895FC01538D448D252FD2
:1002A00030E0842F90E0821B930B541710F0CF9610
:1002B000089501970895FC01918D828D981761F042
:1002C000A28DAE0FBF2FB11D5D968C91928D9F5F59
:1002D0009F73928F90E008958FEF9FEF0895FC0138
:1002E000918D828D981731F0828DE80FF11D858DEB
:1002F00090E008958FEF9FEF0895FC01918D228D7E
:10030000892F90E0805C9F4F821B91098F73992702
:1003100008958FE491E00E947D0121E0892B09F48A
:1003200020E0822F089580E090E0892B29F00E9440
:10033000890181110C9400000895FC01A48DA80F7F
:10034000B92FB11DA35ABF4F2C91848D90E0019617
:100350008F739927848FA689B7892C93A089B18937
:100360008C91837080648C93938D848D981306C0D8
:100370000288F389E02D80818F7D80830895EF923C
:10038000FF920F931F93CF93DF93EC0181E0888F4F
:100390009B8D8C8D98131AC0E889F989808185FF1F
:1003A00015C09FB7F894EE89FF896083E889F989C1
:1003B00080818370806480839FBF81E090E0DF91C3
:1003C000CF911F910F91FF90EF900895F62E0B8D16
:1003D00010E00F5F1F4F0F731127E02E8C8D8E11D1
:1003E0000CC00FB607FCFACFE889F989808185FF38
:1003F000F5CFCE010E949D01F1CFEB8DEC0FFD2FCB
:10040000F11DE35AFF4FF0829FB7F8940B8FEA89F2
:10041000FB8980818062CFCFCF93DF93EC01888D01
:100420008823B9F0AA89BB89E889F9898C9185FD6F
:1004300003C0808186FD0DC00FB607FCF7CF8C91FD
:1004400085FFF2CF808185FFEDCFCE010E949D0117
:10045000E9CFDF91CF910895833081F028F4813086
:1004600099F08230A9F008958730A9F08830C9F05A
:100470008430B1F4809180008F7D03C08091800032
:100480008F7780938000089584B58F7784BD089519
:1004900084B58F7DFBCF8091B0008F778093B000C3
:1004A00008958091B0008F7DF9CFCF93DF93282FEF
:1004B00030E0F901E255FF4F8491F901E656FF4F14
:1004C000D491F901EA57FF4FC491CC23A1F08111D7
:1004D0000E942C02EC2FF0E0EE0FFF1FE458FF4FBC
:1004E000A591B491EC91ED2381E090E009F480E0D6
:1004F000DF91CF91089580E090E0FACF862F0C94A1
:1005000055021F93CF93DF93282F30E0F901E25576
:10051000FF4F8491F901E656FF4FD491F901EA5754
:10052000FF4FC491CC23A9F0162F81110E942C02F9
:10053000EC2FF0E0EE0FFF1FEE58FF4FA591B491A6
:100540008FB7F894EC91111108C0D095DE23DC939D
:100550008FBFDF91CF911F910895DE2BF8CF862FAB
:10056000642F0C948102CF93DF9390E0FC01E65658
:10057000FF4F24918A579F4FFC0184918823C9F033
:1005800090E0880F991FFC01E859FF4FA591B491A5
:10059000FC01EE58FF4FC591D49161110DC09FB77A
:1005A000F8948C91209582238C938881282328832A
:1005B0009FBFDF91CF910895623051F49FB7F894B7
:1005C0003C91822F809583238C93E8812E2BEFCF53
:1005D0008FB7F894EC912E2B2C938FBFEACF862FF8
:1005E000642F0C94B3026F927F928F929F92AF927E
:1005F000BF92CF92DF92EF92FF920F931F93CF9310
:10060000DF9381E0809358028FB7F89440914B01BB
:1006100050914C0160914D0170914E018FBF8091BE
:10062000480290914902A0914A02B0914B02481BA6
:10063000590B6A0B7B0B8091540290915502B0E0EC
:10064000A0E084179507A607B70708F01DC1C0E012
:1006500080915202C81760F4E0914E02F0914F026F
:10066000EC0FF11D62E080810E94B302CF5FF0CFFA
:10067000712C812C912C5401839480915302781613
:1006800008F05FC0072D10E0E0915002F091510298
:10069000E00FF11F61E080810E94B302E0915002FF
:1006A000F0915102E00FF11F60E080810E94810211
:1006B000D501C401072C04C0880F991FAA1FBB1FB6
:1006C0000A94D2F76C017C01E094F094612C809143
:1006D00052026816F8F4C62DD0E0E0914E02F09177
:1006E0004F02EC0FFD1F80810E9455022496CC0F13
:1006F000DD1FC451DE4F892B41F4888199818C29FB
:100700009D29998388836394E2CF888199818E2182
:100710009F21F7CFE0915002F0915102E00FF11FBD
:1007200061E080810E94810280915002909151028B
:10073000080F191F60E0F80180810E94B3027394D2
:100740009CCFCCEED1E0FE018FEF9FEF278D30A143
:10075000232B21F4148E968F858F11A2369622E0DA
:10076000E832F20799F7F12C96E0D92E80915202E7
:10077000F81608F050C0E12C0F2D10E0000F111FEB
:100780000C501E4F20915302E21608F042C0F801AF
:10079000608171810E2C02C0769567950A94E2F70C
:1007A000F29E900111242E0D311DECEEF1E080E05F
:1007B000458D568D2417350709F46AC08F5F36962C
:1007C0008A30B1F760FF23C0ECEEF1E090E080E00A
:1007D000448D411117C0E0914C02F0914D02E20F9F
:1007E000F31F4081D89EF001D99EF00D1124E451F1
:1007F000FE4F448F368F258F10A2178E61E00E9426
:10080000AF0005C0019636968A30910509F7E3944A
:10081000B9CFF394ABCF80E099A19111892F26969F
:10082000F2E0C832DF07C1F79FB7F89440914B015F
:1008300050914C0160914D0170914E019FBF4093CA
:1008400048025093490260934A0270934B028823F6
:10085000D9F080910D028823B9F080910B0290911C
:100860000C02019789F480910802DF91CF911F91CA
:100870000F91FF90EF90DF90CF90BF90AF909F903F
:100880008F907F906F9008951092580280E0EDCF86
:100890006170B5CF3FB7F8948091430190914401C6
:1008A000A0914501B091460126B5A89B05C02F3FF8
:1008B00019F00196A11DB11D3FBFBA2FA92F982F86
:1008C0008827BC01CD01620F711D811D911D42E081
:1008D000660F771F881F991F4A95D1F708958F9249
:1008E0009F92AF92BF92CF92DF92EF92FF920E94BF
:1008F0004A044B015C0188EBC82E8BE0D82EE12C1A
:10090000F12C0E944A04681979098A099B09683EFA
:10091000734081059105A8F321E0C21AD108E108CE
:10092000F10888EE880E83E0981EA11CB11CC1144A
:10093000D104E104F10429F7FF90EF90DF90CF900C
:10094000BF90AF909F908F900895FC010190002080
:10095000E9F73197AF01481B590BBC018FE491E0D7
:100960000C941F0120910B0230910C0221303105B3
:1009700009F051C08332C9F18A32E1F580915B02FE
:1009800090915C02FC01319120915D02AEE5B2E0F4
:100990004496311116C021111BC061E089E00E940C
:1009A00081028FE291E00E94A50481E090E09093A3
:1009B0004A01809349010E946F0460E089E00C9431
:1009C0008102321305C031912D918E179F0709F7CF
:1009D00061E08AE00E94810210924A01109249016E
:1009E0000E946F0460E08AE0EACF109271021092D8
:1009F0005D020895E0917102E33169F091E09E0F8C
:100A000090937102F0E0E55AFD4F8283E92FF0E008
:100A1000E55AFD4F128208951F920F920FB60F9262
:100A200011242F933F934F935F936F937F938F93F3
:100A30009F93AF93BF93EF93FF938FE491E00E9456
:100A40009D01FF91EF91BF91AF919F918F917F9108
:100A50006F915F914F913F912F910F900FBE0F902B
:100A60001F9018951F920F920FB60F9211242F937B
:100A70008F939F93EF93FF93E0915F01F09160015B
:100A80008081E0916501F091660182FD1BC090813B
:100A9000809168018F5F8F7320916901821741F007
:100AA000E0916801F0E0E15BFE4F958F8093680173
:100AB000FF91EF919F918F912F910F900FBE0F900B
:100AC0001F9018958081F4CF1F920F920FB60F924E
:100AD00011242F933F938F939F93AF93BF93809154
:100AE0004B0190914C01A0914D01B0914E0130917C
:100AF000420123E0230F2D3758F50196A11DB11DAA
:100B00002093420180934B0190934C01A0934D019F
:100B1000B0934E018091430190914401A091450111
:100B2000B09146010196A11DB11D809343019093A0
:100B30004401A0934501B0934601BF91AF919F91AD
:100B40008F913F912F910F900FBE0F901F9018958E
:100B500026E8230F0296A11DB11DD2CF109252019B
:100B60001092510188EE93E0A0E0B0E08093530131
:100B700090935401A0935501B093560187E191E001
:100B80009093500180934F0185EC90E090935C012D
:100B900080935B0184EC90E090935E0180935D0113
:100BA00080EC90E09093600180935F0181EC90E095
:100BB000909362018093610182EC90E090936401D4
:100BC0008093630186EC90E09093660180936501C9
:100BD000109268011092690110926A0110926B01E3
:100BE00081E391E090935C0280935B02109271022A
:100BF00010925D021092EE011092F2011092F1013A
:100C00001092F30189E291E09093ED018093EC0161
:100C1000E8E0F2E01082148213821582369682E0B8
:100C2000E434F807B9F783E091E090934F028093A2
:100C30004E0280E091E0909351028093500284E054
:100C40008093520283E08093530287E091E0909377
:100C50004D0280934C028AE090E09093550280937D
:100C6000540284EF91E090935702809356021092C1
:100C70005A021092590210924802109249021092A0
:100C80004A0210924B02109258020895789484B54B
:100C9000826084BD84B5816084BD85B5826085BD78
:100CA00085B5816085BD80916E00816080936E0006
:100CB00010928100809181008260809381008091F8
:100CC00081008160809381008091800081608093A9
:100CD00080008091B10084608093B1008091B00069
:100CE00081608093B00080917A00846080937A0064
:100CF00080917A00826080937A0080917A0081608E
:100D000080937A0080917A00806880937A001092B4
:100D1000C100E0915F01F091600182E08083E09189
:100D20005B01F0915C011082E0915D01F0915E0148
:100D30008FEC808310926701E0916301F091640170
:100D400086E08083E0916101F091620180818061A1
:100D50008083E0916101F0916201808188608083ED
:100D6000E0916101F0916201808180688083E0916F
:100D70006101F091620180818F7D808361E089E073
:100D80000E94B30261E08AE00E94B30260E089E061
:100D90000E94810260E08AE00E94810282EB94E07E
:100DA00090935A028093590280E0C82E80E0D82E9A
:100DB000EE24E394F12C0E94F3020091490110917A
:100DC0004A010130110509F05FC00E94F302C82FEB
:100DD000882399F38133C1F41093480100934701AC
:100DE00085E391E00E94A50480914701909148011C
:100DF000892B29F46C2F8FE491E00E94BF0110929F
:100E0000480110924701D9CF823339F41093480139
:100E10000093470187E391E0E5CF833339F41093E2
:100E200048010093470183E391E0DCCF843339F438
:100E3000109348010093470189E391E0D3CF8533B4
:100E400039F410934801009347018BE391E0CACF36
:100E5000863339F4F0924801E09247018DE391E046
:100E6000C1CF873339F4F0924801E09247018FE314
:100E700091E0B8CF883309F0B7CFF0924801E09203
:100E800047018FE291E0AECFC114D10409F493CFB2
:100E90000E948901882309F48ECF0E9400008BCF25
:100EA000EE0FFF1F0590F491E02D0994F894FFCF09
:100EB0000607080203040531323334353637383932
:100EC0002A302300000000BF011F014C010C027DED
:100ED000015B016F0100000000EF02AF027E0238EB
:100EE0000031323300310032003400350036003733
:020EF000000000
:00000001FF
